{
  "contractName": "EthMov",
  "abi": [
    {
      "anonymous": false,
      "inputs": [
        {
          "indexed": false,
          "internalType": "uint256",
          "name": "transportID",
          "type": "uint256"
        },
        {
          "indexed": false,
          "internalType": "address",
          "name": "transporter",
          "type": "address"
        }
      ],
      "name": "AllocatedTransportSupplyCancelled",
      "type": "event"
    },
    {
      "anonymous": false,
      "inputs": [
        {
          "indexed": false,
          "internalType": "uint256",
          "name": "transportID",
          "type": "uint256"
        }
      ],
      "name": "Delivery",
      "type": "event"
    },
    {
      "anonymous": false,
      "inputs": [
        {
          "indexed": false,
          "internalType": "uint256",
          "name": "transportID",
          "type": "uint256"
        }
      ],
      "name": "PickUp",
      "type": "event"
    },
    {
      "anonymous": false,
      "inputs": [
        {
          "indexed": false,
          "internalType": "uint256",
          "name": "transportID",
          "type": "uint256"
        },
        {
          "indexed": true,
          "internalType": "uint8[4]",
          "name": "itinerary",
          "type": "uint8[4]"
        },
        {
          "indexed": true,
          "internalType": "enum EthMov.SizeCategory",
          "name": "sizeCategory",
          "type": "uint8"
        },
        {
          "indexed": true,
          "internalType": "enum EthMov.WeightCategory",
          "name": "weightCategory",
          "type": "uint8"
        },
        {
          "indexed": false,
          "internalType": "uint256",
          "name": "timestamp",
          "type": "uint256"
        },
        {
          "indexed": false,
          "internalType": "uint256",
          "name": "maxDeliveryTimestamp",
          "type": "uint256"
        },
        {
          "indexed": false,
          "internalType": "uint256",
          "name": "bidPrice",
          "type": "uint256"
        }
      ],
      "name": "TransportDemanded",
      "type": "event"
    },
    {
      "anonymous": false,
      "inputs": [
        {
          "indexed": false,
          "internalType": "uint256",
          "name": "_transportID",
          "type": "uint256"
        },
        {
          "indexed": false,
          "internalType": "address",
          "name": "transportSupplier",
          "type": "address"
        },
        {
          "indexed": false,
          "internalType": "uint256",
          "name": "askPrice",
          "type": "uint256"
        }
      ],
      "name": "TransportSupplied",
      "type": "event"
    },
    {
      "anonymous": false,
      "inputs": [
        {
          "indexed": false,
          "internalType": "uint256",
          "name": "transportID",
          "type": "uint256"
        },
        {
          "indexed": false,
          "internalType": "address",
          "name": "selectedTransporter",
          "type": "address"
        },
        {
          "indexed": false,
          "internalType": "uint256",
          "name": "atPrice",
          "type": "uint256"
        }
      ],
      "name": "TransportationAllocated",
      "type": "event"
    },
    {
      "anonymous": false,
      "inputs": [
        {
          "indexed": false,
          "internalType": "uint256",
          "name": "transportID",
          "type": "uint256"
        },
        {
          "indexed": false,
          "internalType": "address",
          "name": "transporter",
          "type": "address"
        }
      ],
      "name": "UnallocatedTransportSupplyCancelled",
      "type": "event"
    },
    {
      "anonymous": false,
      "inputs": [
        {
          "indexed": false,
          "internalType": "uint256",
          "name": "transportID",
          "type": "uint256"
        }
      ],
      "name": "transportDemandCancellation",
      "type": "event"
    },
    {
      "inputs": [
        {
          "internalType": "uint256",
          "name": "",
          "type": "uint256"
        }
      ],
      "name": "transportDemandPool",
      "outputs": [
        {
          "internalType": "address",
          "name": "fromAddress",
          "type": "address"
        },
        {
          "internalType": "address",
          "name": "toAddress",
          "type": "address"
        },
        {
          "internalType": "address",
          "name": "transporter",
          "type": "address"
        },
        {
          "internalType": "enum EthMov.SizeCategory",
          "name": "sizeCategory",
          "type": "uint8"
        },
        {
          "internalType": "enum EthMov.WeightCategory",
          "name": "weightCategory",
          "type": "uint8"
        },
        {
          "internalType": "uint256",
          "name": "timestamp",
          "type": "uint256"
        },
        {
          "internalType": "uint256",
          "name": "maxDeliveryTimestamp",
          "type": "uint256"
        },
        {
          "internalType": "uint256",
          "name": "weiPacketValue",
          "type": "uint256"
        },
        {
          "internalType": "uint256",
          "name": "price",
          "type": "uint256"
        }
      ],
      "stateMutability": "view",
      "type": "function",
      "constant": true
    },
    {
      "inputs": [],
      "name": "withdraw",
      "outputs": [],
      "stateMutability": "nonpayable",
      "type": "function"
    },
    {
      "inputs": [
        {
          "internalType": "uint256",
          "name": "_transportID",
          "type": "uint256"
        }
      ],
      "name": "viewItinerary",
      "outputs": [
        {
          "internalType": "uint8[4]",
          "name": "itinerary",
          "type": "uint8[4]"
        }
      ],
      "stateMutability": "view",
      "type": "function",
      "constant": true
    },
    {
      "inputs": [
        {
          "internalType": "address",
          "name": "_to",
          "type": "address"
        },
        {
          "internalType": "enum EthMov.SizeCategory",
          "name": "_sizeCategory",
          "type": "uint8"
        },
        {
          "internalType": "enum EthMov.WeightCategory",
          "name": "_weightCategory",
          "type": "uint8"
        },
        {
          "internalType": "uint8[4]",
          "name": "_itinerary",
          "type": "uint8[4]"
        },
        {
          "internalType": "uint256",
          "name": "_maxDeliveryTimestamp",
          "type": "uint256"
        },
        {
          "internalType": "uint256",
          "name": "_weiPacketValue",
          "type": "uint256"
        },
        {
          "internalType": "uint256",
          "name": "_bidPrice",
          "type": "uint256"
        }
      ],
      "name": "demandTransport",
      "outputs": [
        {
          "internalType": "uint256",
          "name": "transportID",
          "type": "uint256"
        }
      ],
      "stateMutability": "nonpayable",
      "type": "function"
    },
    {
      "inputs": [
        {
          "internalType": "uint256",
          "name": "_transportID",
          "type": "uint256"
        },
        {
          "internalType": "uint256",
          "name": "_askPrice",
          "type": "uint256"
        }
      ],
      "name": "supplyTransport",
      "outputs": [],
      "stateMutability": "nonpayable",
      "type": "function"
    },
    {
      "inputs": [
        {
          "internalType": "uint256",
          "name": "_transportID",
          "type": "uint256"
        },
        {
          "internalType": "address payable",
          "name": "_selectedTransporter",
          "type": "address"
        }
      ],
      "name": "allocateTransport",
      "outputs": [],
      "stateMutability": "payable",
      "type": "function",
      "payable": true
    },
    {
      "inputs": [
        {
          "internalType": "uint256",
          "name": "_transportID",
          "type": "uint256"
        }
      ],
      "name": "confirmPickUp",
      "outputs": [],
      "stateMutability": "nonpayable",
      "type": "function"
    },
    {
      "inputs": [
        {
          "internalType": "uint256",
          "name": "_transportID",
          "type": "uint256"
        }
      ],
      "name": "confirmDelivery",
      "outputs": [],
      "stateMutability": "nonpayable",
      "type": "function"
    },
    {
      "inputs": [
        {
          "internalType": "uint256",
          "name": "_transportID",
          "type": "uint256"
        }
      ],
      "name": "cancelTransportDemand",
      "outputs": [],
      "stateMutability": "nonpayable",
      "type": "function"
    },
    {
      "inputs": [
        {
          "internalType": "uint256",
          "name": "_transportID",
          "type": "uint256"
        }
      ],
      "name": "cancelTransportSupply",
      "outputs": [],
      "stateMutability": "nonpayable",
      "type": "function"
    }
  ],
  "bytecode": "0x6080604052600060015534801561001557600080fd5b50611ea9806100256000396000f3fe6080604052600436106100915760003560e01c80636d84abcf116100595780636d84abcf146102fc57806389a47deb1461033757806390af073f146103ae578063a5b9ee14146103fc578063fd84cb971461043757610091565b80630826279014610096578063159b3375146100db5780631f6d7d82146101835780633ccfd60b146102aa5780635302560c146102c1575b600080fd5b3480156100a257600080fd5b506100d9600480360360408110156100b957600080fd5b810190808035906020019092919080359060200190929190505050610472565b005b3480156100e757600080fd5b5061016d60048036036101408110156100ff57600080fd5b81019080803573ffffffffffffffffffffffffffffffffffffffff169060200190929190803560ff169060200190929190803560ff169060200190929190806080019091929192908035906020019092919080359060200190929190803590602001909291905050506105a3565b6040518082815260200191505060405180910390f35b34801561018f57600080fd5b506101bc600480360360208110156101a657600080fd5b81019080803590602001909291905050506108a7565b604051808a73ffffffffffffffffffffffffffffffffffffffff1673ffffffffffffffffffffffffffffffffffffffff1681526020018973ffffffffffffffffffffffffffffffffffffffff1673ffffffffffffffffffffffffffffffffffffffff1681526020018873ffffffffffffffffffffffffffffffffffffffff1673ffffffffffffffffffffffffffffffffffffffff16815260200187600281111561026257fe5b60ff16815260200186600281111561027657fe5b60ff168152602001858152602001848152602001838152602001828152602001995050505050505050505060405180910390f35b3480156102b657600080fd5b506102bf61096f565b005b3480156102cd57600080fd5b506102fa600480360360208110156102e457600080fd5b8101908080359060200190929190505050610a40565b005b34801561030857600080fd5b506103356004803603602081101561031f57600080fd5b8101908080359060200190929190505050610e76565b005b34801561034357600080fd5b506103706004803603602081101561035a57600080fd5b8101908080359060200190929190505050610fc0565b6040518082600460200280838360005b8381101561039b578082015181840152602081019050610380565b5050505090500191505060405180910390f35b6103fa600480360360408110156103c457600080fd5b8101908080359060200190929190803573ffffffffffffffffffffffffffffffffffffffff1690602001909291905050506110e4565b005b34801561040857600080fd5b506104356004803603602081101561041f57600080fd5b81019080803590602001909291905050506115a9565b005b34801561044357600080fd5b506104706004803603602081101561045a57600080fd5b81019080803590602001909291905050506118f7565b005b6003600083815260200190815260200160002060405180604001604052803373ffffffffffffffffffffffffffffffffffffffff16815260200183815250908060018154018082558091505060019003906000526020600020906002020160009091909190915060008201518160000160006101000a81548173ffffffffffffffffffffffffffffffffffffffff021916908373ffffffffffffffffffffffffffffffffffffffff1602179055506020820151816001015550507f98cd5064478fd90f2f72549bedecba7f2caba213ee3d5b8b5a920d87ecc569af823383604051808481526020018373ffffffffffffffffffffffffffffffffffffffff1673ffffffffffffffffffffffffffffffffffffffff168152602001828152602001935050505060405180910390a15050565b600060016000815480929190600101919050555060015490506040518061014001604052803373ffffffffffffffffffffffffffffffffffffffff1681526020018973ffffffffffffffffffffffffffffffffffffffff168152602001600073ffffffffffffffffffffffffffffffffffffffff16815260200188600281111561062957fe5b815260200187600281111561063a57fe5b8152602001866004806020026040519081016040528092919082600460200280828437600081840152601f19601f8201169050808301925050505050508152602001428152602001858152602001848152602001838152506002600083815260200190815260200160002060008201518160000160006101000a81548173ffffffffffffffffffffffffffffffffffffffff021916908373ffffffffffffffffffffffffffffffffffffffff16021790555060208201518160010160006101000a81548173ffffffffffffffffffffffffffffffffffffffff021916908373ffffffffffffffffffffffffffffffffffffffff16021790555060408201518160020160006101000a81548173ffffffffffffffffffffffffffffffffffffffff021916908373ffffffffffffffffffffffffffffffffffffffff16021790555060608201518160020160146101000a81548160ff0219169083600281111561079e57fe5b021790555060808201518160020160156101000a81548160ff021916908360028111156107c757fe5b021790555060a0820151816003019060046107e3929190611b89565b5060c0820151816004015560e082015181600501556101008201518160060155610120820151816007015590505085600281111561081d57fe5b87600281111561082957fe5b8660405180826004602002808284378083019250505091505060405180910390207f12e241377aec2306fac6f96b307f1204aab3113b8a8c7dfaee5e142d8623f0a7844289886040518085815260200184815260200183815260200182815260200194505050505060405180910390a4809050979650505050505050565b60026020528060005260406000206000915090508060000160009054906101000a900473ffffffffffffffffffffffffffffffffffffffff16908060010160009054906101000a900473ffffffffffffffffffffffffffffffffffffffff16908060020160009054906101000a900473ffffffffffffffffffffffffffffffffffffffff16908060020160149054906101000a900460ff16908060020160159054906101000a900460ff16908060040154908060050154908060060154908060070154905089565b60008060003373ffffffffffffffffffffffffffffffffffffffff1673ffffffffffffffffffffffffffffffffffffffff16815260200190815260200160002054905060008060003373ffffffffffffffffffffffffffffffffffffffff1673ffffffffffffffffffffffffffffffffffffffff168152602001908152602001600020819055503373ffffffffffffffffffffffffffffffffffffffff166108fc829081150290604051600060405180830381858888f19350505050158015610a3c573d6000803e3d6000fd5b5050565b80600280811115610a4d57fe5b6004600083815260200190815260200160002060009054906101000a900460ff166002811115610a7957fe5b1415610ad0576040517f08c379a0000000000000000000000000000000000000000000000000000000008152600401808060200182810382526030815260200180611cef6030913960400191505060405180910390fd5b60008090505b6003600084815260200190815260200160002080549050811015610be3573373ffffffffffffffffffffffffffffffffffffffff16600360008581526020019081526020016000208281548110610b2957fe5b906000526020600020906002020160000160009054906101000a900473ffffffffffffffffffffffffffffffffffffffff1673ffffffffffffffffffffffffffffffffffffffff161415610bd657600360008481526020019081526020016000208181548110610b9557fe5b9060005260206000209060020201600080820160006101000a81549073ffffffffffffffffffffffffffffffffffffffff0219169055600182016000905550505b8080600101915050610ad6565b5060016002811115610bf157fe5b6004600084815260200190815260200160002060009054906101000a900460ff166002811115610c1d57fe5b148015610c8b57503373ffffffffffffffffffffffffffffffffffffffff166002600084815260200190815260200160002060020160009054906101000a900473ffffffffffffffffffffffffffffffffffffffff1673ffffffffffffffffffffffffffffffffffffffff16145b15610e06576002600083815260200190815260200160002060020160006101000a81549073ffffffffffffffffffffffffffffffffffffffff021916905560006004600084815260200190815260200160002060006101000a81548160ff02191690836002811115610cf957fe5b021790555060026000838152602001908152602001600020600701546000806002600086815260200190815260200160002060000160009054906101000a900473ffffffffffffffffffffffffffffffffffffffff1673ffffffffffffffffffffffffffffffffffffffff1673ffffffffffffffffffffffffffffffffffffffff168152602001908152602001600020600082825401925050819055507f81f6c8fdf5c0794749166b428249c02a7962d248f18cfa88e70a564b282b79a58233604051808381526020018273ffffffffffffffffffffffffffffffffffffffff1673ffffffffffffffffffffffffffffffffffffffff1681526020019250505060405180910390a1610e72565b7fea891f22d24a1a6517e1cfc86903a164db8e2fa2619a5329148237960077ecd18233604051808381526020018273ffffffffffffffffffffffffffffffffffffffff1673ffffffffffffffffffffffffffffffffffffffff1681526020019250505060405180910390a15b5050565b803373ffffffffffffffffffffffffffffffffffffffff166002600083815260200190815260200160002060020160009054906101000a900473ffffffffffffffffffffffffffffffffffffffff1673ffffffffffffffffffffffffffffffffffffffff1614610f31576040517f08c379a0000000000000000000000000000000000000000000000000000000008152600401808060200182810382526030815260200180611e106030913960400191505060405180910390fd5b60026004600084815260200190815260200160002060006101000a81548160ff02191690836002811115610f6157fe5b0217905550600360008381526020019081526020016000206000610f859190611c23565b7f8a4079a255b0a408852bc51ce05272a95de426e66bfc5d204314b5e67dec0975826040518082815260200191505060405180910390a15050565b610fc8611c47565b604051806080016040528060026000858152602001908152602001600020600301600060048110610ff557fe5b602091828204019190069054906101000a900460ff1660ff1660ff1681526020016002600085815260200190815260200160002060030160016004811061103857fe5b602091828204019190069054906101000a900460ff1660ff1660ff1681526020016002600085815260200190815260200160002060030160026004811061107b57fe5b602091828204019190069054906101000a900460ff1660ff1660ff168152602001600260008581526020019081526020016000206003016003600481106110be57fe5b602091828204019190069054906101000a900460ff1660ff1660ff168152509050919050565b813373ffffffffffffffffffffffffffffffffffffffff166002600083815260200190815260200160002060000160009054906101000a900473ffffffffffffffffffffffffffffffffffffffff1673ffffffffffffffffffffffffffffffffffffffff161461119f576040517f08c379a000000000000000000000000000000000000000000000000000000000815260040180806020018281038252602b815260200180611d1f602b913960400191505060405180910390fd5b60008090505b60036000858152602001908152602001600020805490508111611257578273ffffffffffffffffffffffffffffffffffffffff166003600086815260200190815260200160002082815481106111f757fe5b906000526020600020906002020160000160009054906101000a900473ffffffffffffffffffffffffffffffffffffffff1673ffffffffffffffffffffffffffffffffffffffff16141561124a57611257565b80806001019150506111a5565b60036000858152602001908152602001600020805490508114156112c6576040517f08c379a0000000000000000000000000000000000000000000000000000000008152600401808060200182810382526029815260200180611d936029913960400191505060405180910390fd5b60006003600086815260200190815260200160002082815481106112e657fe5b90600052602060002090600202016001015490506000600281111561130757fe5b6004600087815260200190815260200160002060009054906101000a900460ff16600281111561133357fe5b14611389576040517f08c379a0000000000000000000000000000000000000000000000000000000008152600401808060200182810382526024815260200180611dbc6024913960400191505060405180910390fd5b60008114156113e3576040517f08c379a0000000000000000000000000000000000000000000000000000000008152600401808060200182810382526049815260200180611d4a6049913960600191505060405180910390fd5b8034101561143c576040517f08c379a0000000000000000000000000000000000000000000000000000000008152600401808060200182810382526034815260200180611e406034913960400191505060405180910390fd5b60016004600087815260200190815260200160002060006101000a81548160ff0219169083600281111561146c57fe5b0217905550836002600087815260200190815260200160002060020160006101000a81548173ffffffffffffffffffffffffffffffffffffffff021916908373ffffffffffffffffffffffffffffffffffffffff1602179055508060026000878152602001908152602001600020600701819055507fe3a148342f5c53baf761eed5da75635df54911c460d599b0fd3a643ab3b29af3858583604051808481526020018373ffffffffffffffffffffffffffffffffffffffff1673ffffffffffffffffffffffffffffffffffffffff168152602001828152602001935050505060405180910390a18034036000803373ffffffffffffffffffffffffffffffffffffffff1673ffffffffffffffffffffffffffffffffffffffff168152602001908152602001600020600082825401925050819055505050505050565b803373ffffffffffffffffffffffffffffffffffffffff166002600083815260200190815260200160002060000160009054906101000a900473ffffffffffffffffffffffffffffffffffffffff1673ffffffffffffffffffffffffffffffffffffffff1614611664576040517f08c379a000000000000000000000000000000000000000000000000000000000815260040180806020018281038252602b815260200180611d1f602b913960400191505060405180910390fd5b8160028081111561167157fe5b6004600083815260200190815260200160002060009054906101000a900460ff16600281111561169d57fe5b14156116f4576040517f08c379a0000000000000000000000000000000000000000000000000000000008152600401808060200182810382526030815260200180611cef6030913960400191505060405180910390fd5b7fbd459426b66011640c7794c72511ba4e28e7424b9ebac95831b2001d310282f2836040518082815260200191505060405180910390a16001600281111561173857fe5b6004600085815260200190815260200160002060009054906101000a900460ff16600281111561176457fe5b14156117cd5760026000848152602001908152602001600020600701546000803373ffffffffffffffffffffffffffffffffffffffff1673ffffffffffffffffffffffffffffffffffffffff168152602001908152602001600020600082825401925050819055505b6003600084815260200190815260200160002060006117ec9190611c23565b60026000848152602001908152602001600020600080820160006101000a81549073ffffffffffffffffffffffffffffffffffffffff02191690556001820160006101000a81549073ffffffffffffffffffffffffffffffffffffffff02191690556002820160006101000a81549073ffffffffffffffffffffffffffffffffffffffff02191690556002820160146101000a81549060ff02191690556002820160156101000a81549060ff02191690556003820160006118ad9190611c69565b600482016000905560058201600090556006820160009055600782016000905550506004600084815260200190815260200160002060006101000a81549060ff0219169055505050565b3373ffffffffffffffffffffffffffffffffffffffff166002600083815260200190815260200160002060010160009054906101000a900473ffffffffffffffffffffffffffffffffffffffff1673ffffffffffffffffffffffffffffffffffffffff16146119b1576040517f08c379a0000000000000000000000000000000000000000000000000000000008152600401808060200182810382526030815260200180611de06030913960400191505060405180910390fd5b60026000828152602001908152602001600020600701546000806002600085815260200190815260200160002060020160009054906101000a900473ffffffffffffffffffffffffffffffffffffffff1673ffffffffffffffffffffffffffffffffffffffff1673ffffffffffffffffffffffffffffffffffffffff168152602001908152602001600020600082825401925050819055507f87d76474b59c8a84b66fbd93991a1e3760b806cc4761ad4a08e39d96d4398f6a816040518082815260200191505060405180910390a160026000828152602001908152602001600020600080820160006101000a81549073ffffffffffffffffffffffffffffffffffffffff02191690556001820160006101000a81549073ffffffffffffffffffffffffffffffffffffffff02191690556002820160006101000a81549073ffffffffffffffffffffffffffffffffffffffff02191690556002820160146101000a81549060ff02191690556002820160156101000a81549060ff0219169055600382016000611b419190611c69565b600482016000905560058201600090556006820160009055600782016000905550506004600082815260200190815260200160002060006101000a81549060ff021916905550565b826004601f01602090048101928215611c125791602002820160005b83821115611be357835183826101000a81548160ff021916908360ff1602179055509260200192600101602081600001049283019260010302611ba5565b8015611c105782816101000a81549060ff0219169055600101602081600001049283019260010302611be3565b505b509050611c1f9190611c70565b5090565b5080546000825560020290600052602060002090810190611c449190611ca0565b50565b6040518060800160405280600490602082028038833980820191505090505090565b5060009055565b611c9d91905b80821115611c9957600081816101000a81549060ff021916905550600101611c76565b5090565b90565b611ceb91905b80821115611ce757600080820160006101000a81549073ffffffffffffffffffffffffffffffffffffffff0219169055600182016000905550600201611ca6565b5090565b9056fe416c7265616479207069636b6564207570207472616e73706f7274732063616e6e6f742062652063616e63656c65642e546869732066756e6374696f6e206d7573742062652063616c6c6564206279207468652073656e6465722e4e6f20737570706c79207761732070726f7669646564206279207468697320616464726573732e2041736b207072696365206d7573742062652067726561746572207468616e20302e4f66666572206e6f7420666f756e642e446f75626c652063686561636b2074686520616464726573735472616e73706f72742068617320616c7265616479206265656e20616c6c6f6361746564546869732066756e6374696f6e206d7573742062652063616c6c6564206279207468652064657374696e6174696f6e2e546869732066756e6374696f6e206d7573742062652063616c6c656420627920746865207472616e73706f727465722e4e6f7420656e6f7567682066756e647320746f206d61746368207472616e73706f72746572206f6666657265642070726963652ea26469706673582212206f7da55b3f472bb267f340e2acdff3d30f1899bc7924093ba887268c061c540464736f6c63430006000033",
  "source": "pragma solidity >=0.6.0;\n\nimport \"./Withdrawal.sol\";\n\n///@title EthMov\ncontract EthMov is Withdrawal {\n    /// @author Cyril Attie\n    /// @notice Matches trasnportation demand with supply\n    /// @dev to be insurable at nexus, to include special conditions option (ex: refrigeration)\n\n    uint256 numTransports=0;\n\n    enum SizeCategory {Enveloppe, SmallBox, BigBox} ///@dev size categories of the packet\n    enum WeightCategory {lessThan1kg, between1kgAnd10kg, moreThan10kg} ///@dev weight categories of the packet\n    enum TransportState {Unallocated, Allocated, PickedUp} ///@dev status of the transport\n\n    ///@dev Transport\n    struct Transport {\n        address fromAddress;\n        address toAddress;\n        address transporter;\n        SizeCategory sizeCategory;\n        WeightCategory weightCategory;\n        uint8[4] itinerary; ///@dev contains _fromLatitude, _fromLongitude, _toLatitude, _toLongitude\n        uint256 timestamp;\n        uint256 maxDeliveryTimestamp;\n        uint256 weiPacketValue; /// for insurance purposes\n        uint256 price; ///@dev fee offered or paid for this transport\n    }\n\n    struct Offer {\n        address transporter;\n        uint256 askPrice;\n    }\n\n    mapping(uint256 => Transport) public transportDemandPool; ///@dev to record transportation demands\n    mapping(uint256 => Offer[]) AvailableTransportSupply; ///@dev to record transportation supplies with offered price\n    mapping(uint256 => TransportState) onGoingTransportation; ///@dev ongoing transportations and their state\n\n    event TransportDemanded(\n        uint256 transportID,\n        uint8[4] indexed itinerary,\n        SizeCategory indexed sizeCategory,\n        WeightCategory indexed weightCategory, //TODO check packetCategory is searchable from topics\n        uint256 timestamp,\n        uint256 maxDeliveryTimestamp,\n        uint256 bidPrice\n    );\n\n    event TransportSupplied(\n        uint256 _transportID,\n        address transportSupplier,\n        uint256 askPrice\n    );\n    event TransportationAllocated(\n        uint256 transportID,\n        address selectedTransporter,\n        uint256 atPrice\n    );\n    event PickUp(uint256 transportID);\n    event Delivery(uint256 transportID);\n    event AllocatedTransportSupplyCancelled(\n        uint256 transportID,\n        address transporter\n    );\n    event UnallocatedTransportSupplyCancelled(\n        uint256 transportID,\n        address transporter\n    );\n    event transportDemandCancellation(uint256 transportID);\n\n    modifier verifySender(uint256 transportId) {\n        ///@param _transportID the transport identifier\n        ///@dev verify sender to allocate transportation to transporter\n        require(\n            transportDemandPool[transportId].fromAddress == msg.sender,\n            \"This function must be called by the sender.\"\n        );\n        _;\n    }\n    modifier verifyTransporter(uint256 transportId) {\n        ///@param _transportID the transport identifier\n        ///@dev verify transporter to confirm pickup\n        require(\n            transportDemandPool[transportId].transporter == msg.sender,\n            \"This function must be called by the transporter.\"\n        );\n        _;\n    }\n    modifier verifyNotPickedUp(uint256 _transportID) {\n        ///@param _transportID the transport identifier\n        ///@dev verify packet has not yet been picked up to let users cancel transport.\n        require(\n            onGoingTransportation[_transportID] != TransportState.PickedUp,\n            \"Already picked up transports cannot be canceled.\"\n        );\n        _;\n    }\n\n    // function viewDemandTransport(uint256 _transportID)\n    //     public\n    //     view\n    //     returns (address fromAddress,address toAddress,address transporter,\n    //     SizeCategory sizeCategory,WeightCategory weightCategory,\n    //     uint8[4] memory itinerary,uint256 timestamp,uint256 maxDeliveryTimestamp,uint256 weiPacketValue,uint256 price)\n    // {\n    //     return (transportDemandPool[_transportID].fromAddress,\n    //     transportDemandPool[_transportID].toAddress,\n    //     transportDemandPool[_transportID].transporter,\n    //     transportDemandPool[_transportID].sizeCategory,\n    //     transportDemandPool[_transportID].weightCategory,\n    //     transportDemandPool[_transportID].itinerary,\n    //     transportDemandPool[_transportID].timestamp,\n    //     transportDemandPool[_transportID].maxDeliveryTimestamp,\n    //     transportDemandPool[_transportID].weiPacketValue,\n    //     transportDemandPool[_transportID].price);\n    // }\n\nfunction viewItinerary(uint256 _transportID)\n        public\n        view\n        returns (uint8[4] memory itinerary)\n    {\n        return ([transportDemandPool[_transportID].itinerary[0],\n                 transportDemandPool[_transportID].itinerary[1],\n                 transportDemandPool[_transportID].itinerary[2],\n                 transportDemandPool[_transportID].itinerary[3]]);\n    }\n\n    function demandTransport(\n        address _to,\n        SizeCategory _sizeCategory,\n        WeightCategory _weightCategory,\n        uint8[4] calldata _itinerary,\n        uint256 _maxDeliveryTimestamp,\n        uint256 _weiPacketValue,\n        uint256 _bidPrice\n    ) external returns (uint transportID) {\n        ///@notice Post a new transportation demand\n        ///@param _to address to which deliver packet\n        ///@param _sizeCategory size category of the packet\n        ///@param _weightCategory weight category of the packet\n        ///@param _itinerary pick up and delivery locations coordinates\n        ///@param _maxDeliveryTimestamp delivery deadline\n        ///@param _weiPacketValue declared value of the packet\n        ///@param _bidPrice offered transportation fee\n        ///@dev increase transport counter\n        numTransports++; // transportID generator\n        transportID = numTransports;\n        ///@dev add TransportDemand to transportDemandPool\n        transportDemandPool[transportID] = Transport({\n            fromAddress: msg.sender,\n            toAddress: _to,\n            transporter: address(0),\n            sizeCategory: _sizeCategory,\n            weightCategory: _weightCategory,\n            itinerary: _itinerary,\n            timestamp: now,\n            maxDeliveryTimestamp: _maxDeliveryTimestamp,\n            weiPacketValue: _weiPacketValue, /// for insurance purposes\n            price: _bidPrice\n        });\n\n        ///@dev log TransportDemanded event\n        emit TransportDemanded(\n            transportID,\n            _itinerary,\n            _sizeCategory,\n            _weightCategory,\n            now,\n            _maxDeliveryTimestamp,\n            _bidPrice\n        );\n        return transportID;\n    }\n\n    function supplyTransport(uint256 _transportID, uint256 _askPrice) external {\n        ///@notice supply a Transport service or modify a transport service supplied\n        ///@param _transportID the transport identifier\n        ///@param _askPrice the transport fee asked by the transporter\n        ///@dev add transport supply to the list of available transporters\n        AvailableTransportSupply[_transportID].push(\n            Offer({transporter: msg.sender, askPrice: _askPrice})\n        );\n        ///@dev log Transport Supply event\n        emit TransportSupplied(_transportID, msg.sender, _askPrice);\n    }\n\n    function allocateTransport(\n        uint256 _transportID,\n        address payable _selectedTransporter\n    ) external payable verifySender(_transportID) {\n        ///@notice to select transporter\n        ///@param _transportID the transport identifier\n        ///@dev check selected transporter made an offer for this transport and ether sent is enough to pay the asked fee\n        uint256 i = 0;\n        for (i; i <= AvailableTransportSupply[_transportID].length; i++) {\n            if (\n                AvailableTransportSupply[_transportID][i].transporter ==\n                _selectedTransporter\n            ) break;\n        }\n        require(\n            i != AvailableTransportSupply[_transportID].length,\n            \"Offer not found.Double cheack the address\"\n        );\n        uint256 askPrice = AvailableTransportSupply[_transportID][i].askPrice;\n        require(\n            onGoingTransportation[_transportID] == TransportState.Unallocated,\n            \"Transport has already been allocated\"\n        );\n        require(\n            askPrice != 0,\n            \"No supply was provided by this address. Ask price must be greater than 0.\"\n        );\n        require(\n            msg.value >= askPrice,\n            \"Not enough funds to match transporter offered price.\"\n        );\n        ///@dev register transport allocation\n        onGoingTransportation[_transportID] = TransportState.Allocated;\n        transportDemandPool[_transportID].transporter = _selectedTransporter;\n        transportDemandPool[_transportID].price = askPrice;\n\n        ///@dev log allocated event\n        emit TransportationAllocated(\n            _transportID,\n            _selectedTransporter,\n            askPrice\n        );\n        ///@dev return change to sender\n        pendingWithdrawals[msg.sender] += msg.value - askPrice;\n    }\n\n    function confirmPickUp(uint256 _transportID)\n        external\n        verifyTransporter(_transportID) ///@dev ensures the transport has been allocated\n    {\n        ///@notice to confirm transporter has picked up the packet\n        ///@param _transportID the transport identifier\n        ///@dev transport state is moved to pickedup and available transport supplies are deleted\n        onGoingTransportation[_transportID] = TransportState.PickedUp;\n        delete AvailableTransportSupply[_transportID];\n        ///@dev log the pickup event\n        emit PickUp(_transportID);\n    }\n\n    function confirmDelivery(uint256 _transportID) external {\n        ///@notice to confirm destination delivery\n        ///@param _transportID the transport identifier\n        ///@dev require the delivery confirmation comes from the receiver\n        require(\n            transportDemandPool[_transportID].toAddress == msg.sender,\n            \"This function must be called by the destination.\"\n        );\n        ///@dev pay the transporter\n        pendingWithdrawals[transportDemandPool[_transportID]\n            .transporter] += transportDemandPool[_transportID].price;\n        ///@dev log delivery and delete all records regarding this transport\n        emit Delivery(_transportID);\n        delete transportDemandPool[_transportID];\n        delete onGoingTransportation[_transportID];\n    }\n\n    function cancelTransportDemand(uint256 _transportID)\n        external\n        verifySender(_transportID) ///@dev check packet has not been picked up yet\n        verifyNotPickedUp(_transportID)\n    {\n        ///@notice cancel the transportation demand\n        ///@param _transportID the transport identifier\n        ///@dev deleted transport\n        emit transportDemandCancellation(_transportID);\n        if (onGoingTransportation[_transportID] == TransportState.Allocated) {\n            ///@dev if transport has been allocated return the fee locked to the customer\n            pendingWithdrawals[msg.sender] += transportDemandPool[_transportID]\n                .price;\n        }\n        ///@dev delete all records related to this transport identifier\n        delete AvailableTransportSupply[_transportID];\n        delete transportDemandPool[_transportID];\n        delete onGoingTransportation[_transportID];\n\n    }\n\n    function cancelTransportSupply(uint256 _transportID)\n        external\n        verifyNotPickedUp(_transportID)\n    {\n        ///@notice cancel transportation supply\n        ///@param _transportID the transport identifier\n        ///@dev delete offer and emit corresponding event\n        for (\n            uint256 i = 0;\n            i < AvailableTransportSupply[_transportID].length;\n            i++\n        ) {\n            if (\n                AvailableTransportSupply[_transportID][i].transporter ==\n                msg.sender\n            ) {\n                delete AvailableTransportSupply[_transportID][i];\n            }\n        }\n        if (\n            onGoingTransportation[_transportID] == TransportState.Allocated &&\n            transportDemandPool[_transportID].transporter == msg.sender\n        ) {\n            ///@dev delete allocated transporter, set back transport to unallocated and return fee to customer\n            delete transportDemandPool[_transportID].transporter;\n            onGoingTransportation[_transportID] = TransportState.Unallocated;\n            pendingWithdrawals[transportDemandPool[_transportID].fromAddress] += transportDemandPool[_transportID].price;\n            ///@dev and emit corresponding event\n            emit AllocatedTransportSupplyCancelled(_transportID, msg.sender);\n        } else {\n            ///@dev else (if unallocated or not allocated to this transporter) just delete offer and emit corresponding event\n            emit UnallocatedTransportSupplyCancelled(_transportID, msg.sender);\n        }\n    }\n}\n",
  "sourcePath": "/home/tumbling20s/_ConsenSys/final_project/contracts/EthMov.sol",
  "compiler": {
    "name": "solc",
    "version": "0.6.0+commit.26b70077.Emscripten.clang"
  },
  "schemaVersion": "3.0.20",
  "updatedAt": "2020-01-26T18:42:09.572Z",
  "networkType": "ethereum",
  "devdoc": {
    "methods": {},
    "title": "EthMov"
  },
  "userdoc": {
    "methods": {}
  }
}