{
  "contractName": "Withdrawal",
  "abi": [
    {
      "inputs": [],
      "name": "withdraw",
      "outputs": [],
      "stateMutability": "nonpayable",
      "type": "function"
    }
  ],
  "bytecode": "0x608060405234801561001057600080fd5b50610141806100206000396000f3fe608060405234801561001057600080fd5b506004361061002b5760003560e01c80633ccfd60b14610030575b600080fd5b61003861003a565b005b60008060003373ffffffffffffffffffffffffffffffffffffffff1673ffffffffffffffffffffffffffffffffffffffff16815260200190815260200160002054905060008060003373ffffffffffffffffffffffffffffffffffffffff1673ffffffffffffffffffffffffffffffffffffffff168152602001908152602001600020819055503373ffffffffffffffffffffffffffffffffffffffff166108fc829081150290604051600060405180830381858888f19350505050158015610107573d6000803e3d6000fd5b505056fea26469706673582212206acf3f5fa6ebeb7783fcfb8755b41baf2da94f5298df4ff268ff7c4ba52808ac64736f6c63430006000033",
  "source": "pragma solidity >=0.6.0;\n\n///@title Withdrawal Pattern\ncontract Withdrawal {\n    /// @author Cyril Attie\n    /// @notice allows secure withdrawal of funds\n\n    mapping(address => uint256) pendingWithdrawals;\n\n    function withdraw() public {\n        ///@notice withdraw your funds\n        uint256 amount = pendingWithdrawals[msg.sender];\n        pendingWithdrawals[msg.sender] = 0;\n        msg.sender.transfer(amount);\n    }\n}",
  "sourcePath": "/home/tumbling20s/_ConsenSys/final_project/contracts/Withdrawal.sol",
  "compiler": {
    "name": "solc",
    "version": "0.6.0+commit.26b70077.Emscripten.clang"
  },
  "schemaVersion": "3.0.20",
  "updatedAt": "2020-01-26T18:42:09.563Z",
  "networkType": "ethereum",
  "devdoc": {
    "methods": {},
    "title": "Withdrawal Pattern"
  },
  "userdoc": {
    "methods": {}
  }
}